{
  "_format": "hh-sol-artifact-1",
  "contractName": "TrustBlockContract",
  "sourceName": "contracts/PostContract.sol",
  "abi": [
    {
      "anonymous": false,
      "inputs": [
        {
          "indexed": false,
          "internalType": "address",
          "name": "recipient",
          "type": "address"
        },
        {
          "indexed": false,
          "internalType": "uint256",
          "name": "postId",
          "type": "uint256"
        }
      ],
      "name": "AddPost",
      "type": "event"
    },
    {
      "anonymous": false,
      "inputs": [
        {
          "indexed": true,
          "internalType": "address",
          "name": "recipient",
          "type": "address"
        },
        {
          "indexed": false,
          "internalType": "uint256",
          "name": "submissionId",
          "type": "uint256"
        }
      ],
      "name": "AddSubmission",
      "type": "event"
    },
    {
      "anonymous": false,
      "inputs": [
        {
          "indexed": false,
          "internalType": "uint256",
          "name": "postId",
          "type": "uint256"
        },
        {
          "indexed": false,
          "internalType": "bool",
          "name": "isDeleted",
          "type": "bool"
        }
      ],
      "name": "DeletePost",
      "type": "event"
    },
    {
      "inputs": [
        {
          "internalType": "string",
          "name": "text",
          "type": "string"
        },
        {
          "internalType": "string",
          "name": "newsUrl",
          "type": "string"
        },
        {
          "internalType": "bool",
          "name": "isDeleted",
          "type": "bool"
        }
      ],
      "name": "addPost",
      "outputs": [],
      "stateMutability": "nonpayable",
      "type": "function"
    },
    {
      "inputs": [
        {
          "internalType": "uint256",
          "name": "textId",
          "type": "uint256"
        },
        {
          "internalType": "bool",
          "name": "isDeleted",
          "type": "bool"
        }
      ],
      "name": "deletePost",
      "outputs": [],
      "stateMutability": "nonpayable",
      "type": "function"
    },
    {
      "inputs": [],
      "name": "getAllPosts",
      "outputs": [
        {
          "components": [
            {
              "internalType": "uint256",
              "name": "id",
              "type": "uint256"
            },
            {
              "internalType": "address",
              "name": "username",
              "type": "address"
            },
            {
              "internalType": "string",
              "name": "newUrl",
              "type": "string"
            },
            {
              "internalType": "string",
              "name": "text",
              "type": "string"
            },
            {
              "internalType": "bool",
              "name": "isDeleted",
              "type": "bool"
            }
          ],
          "internalType": "struct TrustBlockContract.Post[]",
          "name": "",
          "type": "tuple[]"
        }
      ],
      "stateMutability": "view",
      "type": "function"
    },
    {
      "inputs": [],
      "name": "getMyPosts",
      "outputs": [
        {
          "components": [
            {
              "internalType": "uint256",
              "name": "id",
              "type": "uint256"
            },
            {
              "internalType": "address",
              "name": "username",
              "type": "address"
            },
            {
              "internalType": "string",
              "name": "newUrl",
              "type": "string"
            },
            {
              "internalType": "string",
              "name": "text",
              "type": "string"
            },
            {
              "internalType": "bool",
              "name": "isDeleted",
              "type": "bool"
            }
          ],
          "internalType": "struct TrustBlockContract.Post[]",
          "name": "",
          "type": "tuple[]"
        }
      ],
      "stateMutability": "view",
      "type": "function"
    },
    {
      "inputs": [],
      "name": "getSubmissions",
      "outputs": [
        {
          "components": [
            {
              "internalType": "uint256",
              "name": "id",
              "type": "uint256"
            },
            {
              "internalType": "address",
              "name": "sender",
              "type": "address"
            },
            {
              "internalType": "string",
              "name": "name",
              "type": "string"
            },
            {
              "internalType": "string",
              "name": "email",
              "type": "string"
            },
            {
              "internalType": "string",
              "name": "workField",
              "type": "string"
            },
            {
              "internalType": "string",
              "name": "qualifications",
              "type": "string"
            },
            {
              "internalType": "string",
              "name": "recentWork",
              "type": "string"
            },
            {
              "internalType": "string",
              "name": "experience",
              "type": "string"
            },
            {
              "internalType": "string",
              "name": "proofs",
              "type": "string"
            }
          ],
          "internalType": "struct TrustBlockContract.Submission[]",
          "name": "",
          "type": "tuple[]"
        }
      ],
      "stateMutability": "view",
      "type": "function"
    },
    {
      "inputs": [
        {
          "internalType": "string",
          "name": "_name",
          "type": "string"
        },
        {
          "internalType": "string",
          "name": "_email",
          "type": "string"
        },
        {
          "internalType": "string",
          "name": "_workField",
          "type": "string"
        },
        {
          "internalType": "string",
          "name": "_qualifications",
          "type": "string"
        },
        {
          "internalType": "string",
          "name": "_recentWork",
          "type": "string"
        },
        {
          "internalType": "string",
          "name": "_experience",
          "type": "string"
        },
        {
          "internalType": "string",
          "name": "_proofs",
          "type": "string"
        }
      ],
      "name": "submit",
      "outputs": [],
      "stateMutability": "nonpayable",
      "type": "function"
    }
  ],
  "bytecode": "0x608060405234801561001057600080fd5b5061211e806100206000396000f3fe608060405234801561001057600080fd5b50600436106100625760003560e01c8063305611001461006757806354f6aa20146100855780635950eb5b146100a35780636103eb3c146100c15780638c855bc7146100dd578063a35c6043146100f9575b600080fd5b61006f610115565b60405161007c9190611d7a565b60405180910390f35b61008d610593565b60405161009a9190611d9c565b60405180910390f35b6100ab610c6c565b6040516100b89190611d7a565b60405180910390f35b6100db60048036038101906100d6919061183f565b611154565b005b6100f760048036038101906100f29190611a04565b611305565b005b610113600480360381019061010e91906118be565b61140d565b005b60606000808054905067ffffffffffffffff81111561015d577f4e487b7100000000000000000000000000000000000000000000000000000000600052604160045260246000fd5b60405190808252806020026020018201604052801561019657816020015b610183611661565b81526020019060019003908161017b5790505b5090506000805b6000805490508110156104675760001515600082815481106101e8577f4e487b7100000000000000000000000000000000000000000000000000000000600052603260045260246000fd5b906000526020600020906005020160040160009054906101000a900460ff16151514156104545760008181548110610249577f4e487b7100000000000000000000000000000000000000000000000000000000600052603260045260246000fd5b90600052602060002090600502016040518060a0016040529081600082015481526020016001820160009054906101000a900473ffffffffffffffffffffffffffffffffffffffff1673ffffffffffffffffffffffffffffffffffffffff1673ffffffffffffffffffffffffffffffffffffffff1681526020016002820180546102d290611f70565b80601f01602080910402602001604051908101604052809291908181526020018280546102fe90611f70565b801561034b5780601f106103205761010080835404028352916020019161034b565b820191906000526020600020905b81548152906001019060200180831161032e57829003601f168201915b5050505050815260200160038201805461036490611f70565b80601f016020809104026020016040519081016040528092919081815260200182805461039090611f70565b80156103dd5780601f106103b2576101008083540402835291602001916103dd565b820191906000526020600020905b8154815290600101906020018083116103c057829003601f168201915b505050505081526020016004820160009054906101000a900460ff16151515158152505083838151811061043a577f4e487b7100000000000000000000000000000000000000000000000000000000600052603260045260246000fd5b6020026020010181905250818061045090611fd3565b9250505b808061045f90611fd3565b91505061019d565b5060008167ffffffffffffffff8111156104aa577f4e487b7100000000000000000000000000000000000000000000000000000000600052604160045260246000fd5b6040519080825280602002602001820160405280156104e357816020015b6104d0611661565b8152602001906001900390816104c85790505b50905060005b828110156105895783818151811061052a577f4e487b7100000000000000000000000000000000000000000000000000000000600052603260045260246000fd5b602002602001015182828151811061056b577f4e487b7100000000000000000000000000000000000000000000000000000000600052603260045260246000fd5b6020026020010181905250808061058190611fd3565b9150506104e9565b5080935050505090565b6060600060018054905067ffffffffffffffff8111156105dc577f4e487b7100000000000000000000000000000000000000000000000000000000600052604160045260246000fd5b60405190808252806020026020018201604052801561061557816020015b6106026116a8565b8152602001906001900390816105fa5790505b5090506000805b600180549050811015610b405760018181548110610663577f4e487b7100000000000000000000000000000000000000000000000000000000600052603260045260246000fd5b906000526020600020906009020160405180610120016040529081600082015481526020016001820160009054906101000a900473ffffffffffffffffffffffffffffffffffffffff1673ffffffffffffffffffffffffffffffffffffffff1673ffffffffffffffffffffffffffffffffffffffff1681526020016002820180546106ed90611f70565b80601f016020809104026020016040519081016040528092919081815260200182805461071990611f70565b80156107665780601f1061073b57610100808354040283529160200191610766565b820191906000526020600020905b81548152906001019060200180831161074957829003601f168201915b5050505050815260200160038201805461077f90611f70565b80601f01602080910402602001604051908101604052809291908181526020018280546107ab90611f70565b80156107f85780601f106107cd576101008083540402835291602001916107f8565b820191906000526020600020905b8154815290600101906020018083116107db57829003601f168201915b5050505050815260200160048201805461081190611f70565b80601f016020809104026020016040519081016040528092919081815260200182805461083d90611f70565b801561088a5780601f1061085f5761010080835404028352916020019161088a565b820191906000526020600020905b81548152906001019060200180831161086d57829003601f168201915b505050505081526020016005820180546108a390611f70565b80601f01602080910402602001604051908101604052809291908181526020018280546108cf90611f70565b801561091c5780601f106108f15761010080835404028352916020019161091c565b820191906000526020600020905b8154815290600101906020018083116108ff57829003601f168201915b5050505050815260200160068201805461093590611f70565b80601f016020809104026020016040519081016040528092919081815260200182805461096190611f70565b80156109ae5780601f10610983576101008083540402835291602001916109ae565b820191906000526020600020905b81548152906001019060200180831161099157829003601f168201915b505050505081526020016007820180546109c790611f70565b80601f01602080910402602001604051908101604052809291908181526020018280546109f390611f70565b8015610a405780601f10610a1557610100808354040283529160200191610a40565b820191906000526020600020905b815481529060010190602001808311610a2357829003601f168201915b50505050508152602001600882018054610a5990611f70565b80601f0160208091040260200160405190810160405280929190818152602001828054610a8590611f70565b8015610ad25780601f10610aa757610100808354040283529160200191610ad2565b820191906000526020600020905b815481529060010190602001808311610ab557829003601f168201915b505050505081525050838381518110610b14577f4e487b7100000000000000000000000000000000000000000000000000000000600052603260045260246000fd5b60200260200101819052508180610b2a90611fd3565b9250508080610b3890611fd3565b91505061061c565b5060008167ffffffffffffffff811115610b83577f4e487b7100000000000000000000000000000000000000000000000000000000600052604160045260246000fd5b604051908082528060200260200182016040528015610bbc57816020015b610ba96116a8565b815260200190600190039081610ba15790505b50905060005b82811015610c6257838181518110610c03577f4e487b7100000000000000000000000000000000000000000000000000000000600052603260045260246000fd5b6020026020010151828281518110610c44577f4e487b7100000000000000000000000000000000000000000000000000000000600052603260045260246000fd5b60200260200101819052508080610c5a90611fd3565b915050610bc2565b5080935050505090565b60606000808054905067ffffffffffffffff811115610cb4577f4e487b7100000000000000000000000000000000000000000000000000000000600052604160045260246000fd5b604051908082528060200260200182016040528015610ced57816020015b610cda611661565b815260200190600190039081610cd25790505b5090506000805b600080549050811015611028573373ffffffffffffffffffffffffffffffffffffffff166002600083815260200190815260200160002060009054906101000a900473ffffffffffffffffffffffffffffffffffffffff1673ffffffffffffffffffffffffffffffffffffffff16148015610dcb57506000151560008281548110610da8577f4e487b7100000000000000000000000000000000000000000000000000000000600052603260045260246000fd5b906000526020600020906005020160040160009054906101000a900460ff161515145b156110155760008181548110610e0a577f4e487b7100000000000000000000000000000000000000000000000000000000600052603260045260246000fd5b90600052602060002090600502016040518060a0016040529081600082015481526020016001820160009054906101000a900473ffffffffffffffffffffffffffffffffffffffff1673ffffffffffffffffffffffffffffffffffffffff1673ffffffffffffffffffffffffffffffffffffffff168152602001600282018054610e9390611f70565b80601f0160208091040260200160405190810160405280929190818152602001828054610ebf90611f70565b8015610f0c5780601f10610ee157610100808354040283529160200191610f0c565b820191906000526020600020905b815481529060010190602001808311610eef57829003601f168201915b50505050508152602001600382018054610f2590611f70565b80601f0160208091040260200160405190810160405280929190818152602001828054610f5190611f70565b8015610f9e5780601f10610f7357610100808354040283529160200191610f9e565b820191906000526020600020905b815481529060010190602001808311610f8157829003601f168201915b505050505081526020016004820160009054906101000a900460ff161515151581525050838381518110610ffb577f4e487b7100000000000000000000000000000000000000000000000000000000600052603260045260246000fd5b6020026020010181905250818061101190611fd3565b9250505b808061102090611fd3565b915050610cf4565b5060008167ffffffffffffffff81111561106b577f4e487b7100000000000000000000000000000000000000000000000000000000600052604160045260246000fd5b6040519080825280602002602001820160405280156110a457816020015b611091611661565b8152602001906001900390816110895790505b50905060005b8281101561114a578381815181106110eb577f4e487b7100000000000000000000000000000000000000000000000000000000600052603260045260246000fd5b602002602001015182828151811061112c577f4e487b7100000000000000000000000000000000000000000000000000000000600052603260045260246000fd5b6020026020010181905250808061114290611fd3565b9150506110aa565b5080935050505090565b60008080549050905060006040518060a001604052808381526020013373ffffffffffffffffffffffffffffffffffffffff16815260200185815260200186815260200184151581525090806001815401808255809150506001900390600052602060002090600502016000909190919091506000820151816000015560208201518160010160006101000a81548173ffffffffffffffffffffffffffffffffffffffff021916908373ffffffffffffffffffffffffffffffffffffffff160217905550604082015181600201908051906020019061123492919061170a565b50606082015181600301908051906020019061125192919061170a565b5060808201518160040160006101000a81548160ff0219169083151502179055505050336002600083815260200190815260200160002060006101000a81548173ffffffffffffffffffffffffffffffffffffffff021916908373ffffffffffffffffffffffffffffffffffffffff1602179055507f211310f5bdfd60139328b0e0b1235a8d92df3ccfc99b9b80da0d81cbac493aea33826040516112f7929190611d51565b60405180910390a150505050565b3373ffffffffffffffffffffffffffffffffffffffff166002600084815260200190815260200160002060009054906101000a900473ffffffffffffffffffffffffffffffffffffffff1673ffffffffffffffffffffffffffffffffffffffff1614156114095780600083815481106113a7577f4e487b7100000000000000000000000000000000000000000000000000000000600052603260045260246000fd5b906000526020600020906005020160040160006101000a81548160ff0219169083151502179055507f50de60758261258765d60f3764f52b012fb4289c1120010bf8b34f7a7976f8158282604051611400929190611dd9565b60405180910390a15b5050565b6000600180549050905060016040518061012001604052808381526020013373ffffffffffffffffffffffffffffffffffffffff1681526020018a81526020018981526020018881526020018781526020018681526020018581526020018481525090806001815401808255809150506001900390600052602060002090600902016000909190919091506000820151816000015560208201518160010160006101000a81548173ffffffffffffffffffffffffffffffffffffffff021916908373ffffffffffffffffffffffffffffffffffffffff160217905550604082015181600201908051906020019061150592919061170a565b50606082015181600301908051906020019061152292919061170a565b50608082015181600401908051906020019061153f92919061170a565b5060a082015181600501908051906020019061155c92919061170a565b5060c082015181600601908051906020019061157992919061170a565b5060e082015181600701908051906020019061159692919061170a565b506101008201518160080190805190602001906115b492919061170a565b505050336002600083815260200190815260200160002060006101000a81548173ffffffffffffffffffffffffffffffffffffffff021916908373ffffffffffffffffffffffffffffffffffffffff1602179055503373ffffffffffffffffffffffffffffffffffffffff167f803727a67d35270dc2c090dc4f9cba1f9818a7200e65c2087eca187851fd6b198260405161164f9190611dbe565b60405180910390a25050505050505050565b6040518060a0016040528060008152602001600073ffffffffffffffffffffffffffffffffffffffff16815260200160608152602001606081526020016000151581525090565b60405180610120016040528060008152602001600073ffffffffffffffffffffffffffffffffffffffff168152602001606081526020016060815260200160608152602001606081526020016060815260200160608152602001606081525090565b82805461171690611f70565b90600052602060002090601f016020900481019282611738576000855561177f565b82601f1061175157805160ff191683800117855561177f565b8280016001018555821561177f579182015b8281111561177e578251825591602001919060010190611763565b5b50905061178c9190611790565b5090565b5b808211156117a9576000816000905550600101611791565b5090565b60006117c06117bb84611e27565b611e02565b9050828152602081018484840111156117d857600080fd5b6117e3848285611f2e565b509392505050565b6000813590506117fa816120ba565b92915050565b600082601f83011261181157600080fd5b81356118218482602086016117ad565b91505092915050565b600081359050611839816120d1565b92915050565b60008060006060848603121561185457600080fd5b600084013567ffffffffffffffff81111561186e57600080fd5b61187a86828701611800565b935050602084013567ffffffffffffffff81111561189757600080fd5b6118a386828701611800565b92505060406118b4868287016117eb565b9150509250925092565b600080600080600080600060e0888a0312156118d957600080fd5b600088013567ffffffffffffffff8111156118f357600080fd5b6118ff8a828b01611800565b975050602088013567ffffffffffffffff81111561191c57600080fd5b6119288a828b01611800565b965050604088013567ffffffffffffffff81111561194557600080fd5b6119518a828b01611800565b955050606088013567ffffffffffffffff81111561196e57600080fd5b61197a8a828b01611800565b945050608088013567ffffffffffffffff81111561199757600080fd5b6119a38a828b01611800565b93505060a088013567ffffffffffffffff8111156119c057600080fd5b6119cc8a828b01611800565b92505060c088013567ffffffffffffffff8111156119e957600080fd5b6119f58a828b01611800565b91505092959891949750929550565b60008060408385031215611a1757600080fd5b6000611a258582860161182a565b9250506020611a36858286016117eb565b9150509250929050565b6000611a4c8383611bc7565b905092915050565b6000611a608383611c44565b905092915050565b611a7181611ee6565b82525050565b611a8081611ee6565b82525050565b6000611a9182611e78565b611a9b8185611eb3565b935083602082028501611aad85611e58565b8060005b85811015611ae95784840389528151611aca8582611a40565b9450611ad583611e99565b925060208a01995050600181019050611ab1565b50829750879550505050505092915050565b6000611b0682611e83565b611b108185611ec4565b935083602082028501611b2285611e68565b8060005b85811015611b5e5784840389528151611b3f8582611a54565b9450611b4a83611ea6565b925060208a01995050600181019050611b26565b50829750879550505050505092915050565b611b7981611ef8565b82525050565b611b8881611ef8565b82525050565b6000611b9982611e8e565b611ba38185611ed5565b9350611bb3818560208601611f3d565b611bbc816120a9565b840191505092915050565b600060a083016000830151611bdf6000860182611d33565b506020830151611bf26020860182611a68565b5060408301518482036040860152611c0a8282611b8e565b91505060608301518482036060860152611c248282611b8e565b9150506080830151611c396080860182611b70565b508091505092915050565b600061012083016000830151611c5d6000860182611d33565b506020830151611c706020860182611a68565b5060408301518482036040860152611c888282611b8e565b91505060608301518482036060860152611ca28282611b8e565b91505060808301518482036080860152611cbc8282611b8e565b91505060a083015184820360a0860152611cd68282611b8e565b91505060c083015184820360c0860152611cf08282611b8e565b91505060e083015184820360e0860152611d0a8282611b8e565b915050610100830151848203610100860152611d268282611b8e565b9150508091505092915050565b611d3c81611f24565b82525050565b611d4b81611f24565b82525050565b6000604082019050611d666000830185611a77565b611d736020830184611d42565b9392505050565b60006020820190508181036000830152611d948184611a86565b905092915050565b60006020820190508181036000830152611db68184611afb565b905092915050565b6000602082019050611dd36000830184611d42565b92915050565b6000604082019050611dee6000830185611d42565b611dfb6020830184611b7f565b9392505050565b6000611e0c611e1d565b9050611e188282611fa2565b919050565b6000604051905090565b600067ffffffffffffffff821115611e4257611e4161207a565b5b611e4b826120a9565b9050602081019050919050565b6000819050602082019050919050565b6000819050602082019050919050565b600081519050919050565b600081519050919050565b600081519050919050565b6000602082019050919050565b6000602082019050919050565b600082825260208201905092915050565b600082825260208201905092915050565b600082825260208201905092915050565b6000611ef182611f04565b9050919050565b60008115159050919050565b600073ffffffffffffffffffffffffffffffffffffffff82169050919050565b6000819050919050565b82818337600083830152505050565b60005b83811015611f5b578082015181840152602081019050611f40565b83811115611f6a576000848401525b50505050565b60006002820490506001821680611f8857607f821691505b60208210811415611f9c57611f9b61204b565b5b50919050565b611fab826120a9565b810181811067ffffffffffffffff82111715611fca57611fc961207a565b5b80604052505050565b6000611fde82611f24565b91507fffffffffffffffffffffffffffffffffffffffffffffffffffffffffffffffff8214156120115761201061201c565b5b600182019050919050565b7f4e487b7100000000000000000000000000000000000000000000000000000000600052601160045260246000fd5b7f4e487b7100000000000000000000000000000000000000000000000000000000600052602260045260246000fd5b7f4e487b7100000000000000000000000000000000000000000000000000000000600052604160045260246000fd5b6000601f19601f8301169050919050565b6120c381611ef8565b81146120ce57600080fd5b50565b6120da81611f24565b81146120e557600080fd5b5056fea26469706673582212203f1cc0c139e95a875cc30b8f5939ccd788bd6d10768938c68ab572ba8168589064736f6c63430008040033",
  "linkReferences": {},
  "deployedLinkReferences": {}
}