{
  "_format": "hh-sol-artifact-1",
  "contractName": "TwitterContract",
  "sourceName": "contracts/PostContract.sol",
  "abi": [
    {
      "anonymous": false,
      "inputs": [
        {
          "indexed": true,
          "internalType": "address",
          "name": "recipient",
          "type": "address"
        },
        {
          "indexed": false,
          "internalType": "uint256",
          "name": "submissionId",
          "type": "uint256"
        }
      ],
      "name": "AddSubmission",
      "type": "event"
    },
    {
      "anonymous": false,
      "inputs": [
        {
          "indexed": false,
          "internalType": "address",
          "name": "recipient",
          "type": "address"
        },
        {
          "indexed": false,
          "internalType": "uint256",
          "name": "tweetId",
          "type": "uint256"
        }
      ],
      "name": "AddTweet",
      "type": "event"
    },
    {
      "anonymous": false,
      "inputs": [
        {
          "indexed": false,
          "internalType": "uint256",
          "name": "tweetId",
          "type": "uint256"
        },
        {
          "indexed": false,
          "internalType": "bool",
          "name": "isDeleted",
          "type": "bool"
        }
      ],
      "name": "DeleteTweet",
      "type": "event"
    },
    {
      "inputs": [
        {
          "internalType": "string",
          "name": "tweetText",
          "type": "string"
        },
        {
          "internalType": "bool",
          "name": "isDeleted",
          "type": "bool"
        }
      ],
      "name": "addTweet",
      "outputs": [],
      "stateMutability": "nonpayable",
      "type": "function"
    },
    {
      "inputs": [
        {
          "internalType": "uint256",
          "name": "tweetId",
          "type": "uint256"
        },
        {
          "internalType": "bool",
          "name": "isDeleted",
          "type": "bool"
        }
      ],
      "name": "deleteTweet",
      "outputs": [],
      "stateMutability": "nonpayable",
      "type": "function"
    },
    {
      "inputs": [],
      "name": "getAllTweets",
      "outputs": [
        {
          "components": [
            {
              "internalType": "uint256",
              "name": "id",
              "type": "uint256"
            },
            {
              "internalType": "address",
              "name": "username",
              "type": "address"
            },
            {
              "internalType": "string",
              "name": "tweetText",
              "type": "string"
            },
            {
              "internalType": "bool",
              "name": "isDeleted",
              "type": "bool"
            }
          ],
          "internalType": "struct TwitterContract.Tweet[]",
          "name": "",
          "type": "tuple[]"
        }
      ],
      "stateMutability": "view",
      "type": "function"
    },
    {
      "inputs": [],
      "name": "getMyTweets",
      "outputs": [
        {
          "components": [
            {
              "internalType": "uint256",
              "name": "id",
              "type": "uint256"
            },
            {
              "internalType": "address",
              "name": "username",
              "type": "address"
            },
            {
              "internalType": "string",
              "name": "tweetText",
              "type": "string"
            },
            {
              "internalType": "bool",
              "name": "isDeleted",
              "type": "bool"
            }
          ],
          "internalType": "struct TwitterContract.Tweet[]",
          "name": "",
          "type": "tuple[]"
        }
      ],
      "stateMutability": "view",
      "type": "function"
    },
    {
      "inputs": [],
      "name": "getSubmissions",
      "outputs": [
        {
          "components": [
            {
              "internalType": "uint256",
              "name": "id",
              "type": "uint256"
            },
            {
              "internalType": "address",
              "name": "sender",
              "type": "address"
            },
            {
              "internalType": "string",
              "name": "name",
              "type": "string"
            },
            {
              "internalType": "string",
              "name": "email",
              "type": "string"
            },
            {
              "internalType": "string",
              "name": "workField",
              "type": "string"
            },
            {
              "internalType": "string",
              "name": "qualifications",
              "type": "string"
            },
            {
              "internalType": "string",
              "name": "recentWork",
              "type": "string"
            },
            {
              "internalType": "string",
              "name": "experience",
              "type": "string"
            },
            {
              "internalType": "string",
              "name": "proofs",
              "type": "string"
            }
          ],
          "internalType": "struct TwitterContract.Submission[]",
          "name": "",
          "type": "tuple[]"
        }
      ],
      "stateMutability": "view",
      "type": "function"
    },
    {
      "inputs": [
        {
          "internalType": "string",
          "name": "_name",
          "type": "string"
        },
        {
          "internalType": "string",
          "name": "_email",
          "type": "string"
        },
        {
          "internalType": "string",
          "name": "_workField",
          "type": "string"
        },
        {
          "internalType": "string",
          "name": "_qualifications",
          "type": "string"
        },
        {
          "internalType": "string",
          "name": "_recentWork",
          "type": "string"
        },
        {
          "internalType": "string",
          "name": "_experience",
          "type": "string"
        },
        {
          "internalType": "string",
          "name": "_proofs",
          "type": "string"
        }
      ],
      "name": "submit",
      "outputs": [],
      "stateMutability": "nonpayable",
      "type": "function"
    }
  ],
  "bytecode": "0x608060405234801561001057600080fd5b50611f8a806100206000396000f3fe608060405234801561001057600080fd5b50600436106100625760003560e01c8063532561351461006757806354f6aa2014610085578063a35c6043146100a3578063aefedbc2146100bf578063e580339f146100dd578063f0312a37146100f9575b600080fd5b61006f610115565b60405161007c9190611c08565b60405180910390f35b61008d610501565b60405161009a9190611be6565b60405180910390f35b6100bd60048036038101906100b89190611744565b610bda565b005b6100c7610e2e565b6040516100d49190611c08565b60405180910390f35b6100f760048036038101906100f291906116f0565b611284565b005b610113600480360381019061010e919061188a565b611411565b005b60606000808054905067ffffffffffffffff81111561015d577f4e487b7100000000000000000000000000000000000000000000000000000000600052604160045260246000fd5b60405190808252806020026020018201604052801561019657816020015b610183611519565b81526020019060019003908161017b5790505b5090506000805b6000805490508110156103d55760001515600082815481106101e8577f4e487b7100000000000000000000000000000000000000000000000000000000600052603260045260246000fd5b906000526020600020906004020160030160009054906101000a900460ff16151514156103c25760008181548110610249577f4e487b7100000000000000000000000000000000000000000000000000000000600052603260045260246000fd5b9060005260206000209060040201604051806080016040529081600082015481526020016001820160009054906101000a900473ffffffffffffffffffffffffffffffffffffffff1673ffffffffffffffffffffffffffffffffffffffff1673ffffffffffffffffffffffffffffffffffffffff1681526020016002820180546102d290611ddc565b80601f01602080910402602001604051908101604052809291908181526020018280546102fe90611ddc565b801561034b5780601f106103205761010080835404028352916020019161034b565b820191906000526020600020905b81548152906001019060200180831161032e57829003601f168201915b505050505081526020016003820160009054906101000a900460ff1615151515815250508383815181106103a8577f4e487b7100000000000000000000000000000000000000000000000000000000600052603260045260246000fd5b602002602001018190525081806103be90611e3f565b9250505b80806103cd90611e3f565b91505061019d565b5060008167ffffffffffffffff811115610418577f4e487b7100000000000000000000000000000000000000000000000000000000600052604160045260246000fd5b60405190808252806020026020018201604052801561045157816020015b61043e611519565b8152602001906001900390816104365790505b50905060005b828110156104f757838181518110610498577f4e487b7100000000000000000000000000000000000000000000000000000000600052603260045260246000fd5b60200260200101518282815181106104d9577f4e487b7100000000000000000000000000000000000000000000000000000000600052603260045260246000fd5b602002602001018190525080806104ef90611e3f565b915050610457565b5080935050505090565b6060600060018054905067ffffffffffffffff81111561054a577f4e487b7100000000000000000000000000000000000000000000000000000000600052604160045260246000fd5b60405190808252806020026020018201604052801561058357816020015b610570611559565b8152602001906001900390816105685790505b5090506000805b600180549050811015610aae57600181815481106105d1577f4e487b7100000000000000000000000000000000000000000000000000000000600052603260045260246000fd5b906000526020600020906009020160405180610120016040529081600082015481526020016001820160009054906101000a900473ffffffffffffffffffffffffffffffffffffffff1673ffffffffffffffffffffffffffffffffffffffff1673ffffffffffffffffffffffffffffffffffffffff16815260200160028201805461065b90611ddc565b80601f016020809104026020016040519081016040528092919081815260200182805461068790611ddc565b80156106d45780601f106106a9576101008083540402835291602001916106d4565b820191906000526020600020905b8154815290600101906020018083116106b757829003601f168201915b505050505081526020016003820180546106ed90611ddc565b80601f016020809104026020016040519081016040528092919081815260200182805461071990611ddc565b80156107665780601f1061073b57610100808354040283529160200191610766565b820191906000526020600020905b81548152906001019060200180831161074957829003601f168201915b5050505050815260200160048201805461077f90611ddc565b80601f01602080910402602001604051908101604052809291908181526020018280546107ab90611ddc565b80156107f85780601f106107cd576101008083540402835291602001916107f8565b820191906000526020600020905b8154815290600101906020018083116107db57829003601f168201915b5050505050815260200160058201805461081190611ddc565b80601f016020809104026020016040519081016040528092919081815260200182805461083d90611ddc565b801561088a5780601f1061085f5761010080835404028352916020019161088a565b820191906000526020600020905b81548152906001019060200180831161086d57829003601f168201915b505050505081526020016006820180546108a390611ddc565b80601f01602080910402602001604051908101604052809291908181526020018280546108cf90611ddc565b801561091c5780601f106108f15761010080835404028352916020019161091c565b820191906000526020600020905b8154815290600101906020018083116108ff57829003601f168201915b5050505050815260200160078201805461093590611ddc565b80601f016020809104026020016040519081016040528092919081815260200182805461096190611ddc565b80156109ae5780601f10610983576101008083540402835291602001916109ae565b820191906000526020600020905b81548152906001019060200180831161099157829003601f168201915b505050505081526020016008820180546109c790611ddc565b80601f01602080910402602001604051908101604052809291908181526020018280546109f390611ddc565b8015610a405780601f10610a1557610100808354040283529160200191610a40565b820191906000526020600020905b815481529060010190602001808311610a2357829003601f168201915b505050505081525050838381518110610a82577f4e487b7100000000000000000000000000000000000000000000000000000000600052603260045260246000fd5b60200260200101819052508180610a9890611e3f565b9250508080610aa690611e3f565b91505061058a565b5060008167ffffffffffffffff811115610af1577f4e487b7100000000000000000000000000000000000000000000000000000000600052604160045260246000fd5b604051908082528060200260200182016040528015610b2a57816020015b610b17611559565b815260200190600190039081610b0f5790505b50905060005b82811015610bd057838181518110610b71577f4e487b7100000000000000000000000000000000000000000000000000000000600052603260045260246000fd5b6020026020010151828281518110610bb2577f4e487b7100000000000000000000000000000000000000000000000000000000600052603260045260246000fd5b60200260200101819052508080610bc890611e3f565b915050610b30565b5080935050505090565b6000600180549050905060016040518061012001604052808381526020013373ffffffffffffffffffffffffffffffffffffffff1681526020018a81526020018981526020018881526020018781526020018681526020018581526020018481525090806001815401808255809150506001900390600052602060002090600902016000909190919091506000820151816000015560208201518160010160006101000a81548173ffffffffffffffffffffffffffffffffffffffff021916908373ffffffffffffffffffffffffffffffffffffffff1602179055506040820151816002019080519060200190610cd29291906115bb565b506060820151816003019080519060200190610cef9291906115bb565b506080820151816004019080519060200190610d0c9291906115bb565b5060a0820151816005019080519060200190610d299291906115bb565b5060c0820151816006019080519060200190610d469291906115bb565b5060e0820151816007019080519060200190610d639291906115bb565b50610100820151816008019080519060200190610d819291906115bb565b505050336002600083815260200190815260200160002060006101000a81548173ffffffffffffffffffffffffffffffffffffffff021916908373ffffffffffffffffffffffffffffffffffffffff1602179055503373ffffffffffffffffffffffffffffffffffffffff167f803727a67d35270dc2c090dc4f9cba1f9818a7200e65c2087eca187851fd6b1982604051610e1c9190611c2a565b60405180910390a25050505050505050565b60606000808054905067ffffffffffffffff811115610e76577f4e487b7100000000000000000000000000000000000000000000000000000000600052604160045260246000fd5b604051908082528060200260200182016040528015610eaf57816020015b610e9c611519565b815260200190600190039081610e945790505b5090506000805b600080549050811015611158573373ffffffffffffffffffffffffffffffffffffffff166002600083815260200190815260200160002060009054906101000a900473ffffffffffffffffffffffffffffffffffffffff1673ffffffffffffffffffffffffffffffffffffffff16148015610f8d57506000151560008281548110610f6a577f4e487b7100000000000000000000000000000000000000000000000000000000600052603260045260246000fd5b906000526020600020906004020160030160009054906101000a900460ff161515145b156111455760008181548110610fcc577f4e487b7100000000000000000000000000000000000000000000000000000000600052603260045260246000fd5b9060005260206000209060040201604051806080016040529081600082015481526020016001820160009054906101000a900473ffffffffffffffffffffffffffffffffffffffff1673ffffffffffffffffffffffffffffffffffffffff1673ffffffffffffffffffffffffffffffffffffffff16815260200160028201805461105590611ddc565b80601f016020809104026020016040519081016040528092919081815260200182805461108190611ddc565b80156110ce5780601f106110a3576101008083540402835291602001916110ce565b820191906000526020600020905b8154815290600101906020018083116110b157829003601f168201915b505050505081526020016003820160009054906101000a900460ff16151515158152505083838151811061112b577f4e487b7100000000000000000000000000000000000000000000000000000000600052603260045260246000fd5b6020026020010181905250818061114190611e3f565b9250505b808061115090611e3f565b915050610eb6565b5060008167ffffffffffffffff81111561119b577f4e487b7100000000000000000000000000000000000000000000000000000000600052604160045260246000fd5b6040519080825280602002602001820160405280156111d457816020015b6111c1611519565b8152602001906001900390816111b95790505b50905060005b8281101561127a5783818151811061121b577f4e487b7100000000000000000000000000000000000000000000000000000000600052603260045260246000fd5b602002602001015182828151811061125c577f4e487b7100000000000000000000000000000000000000000000000000000000600052603260045260246000fd5b6020026020010181905250808061127290611e3f565b9150506111da565b5080935050505090565b600080805490509050600060405180608001604052808381526020013373ffffffffffffffffffffffffffffffffffffffff16815260200185815260200184151581525090806001815401808255809150506001900390600052602060002090600402016000909190919091506000820151816000015560208201518160010160006101000a81548173ffffffffffffffffffffffffffffffffffffffff021916908373ffffffffffffffffffffffffffffffffffffffff160217905550604082015181600201908051906020019061135e9291906115bb565b5060608201518160030160006101000a81548160ff0219169083151502179055505050336002600083815260200190815260200160002060006101000a81548173ffffffffffffffffffffffffffffffffffffffff021916908373ffffffffffffffffffffffffffffffffffffffff1602179055507f8b2db9b424f26463510ef5b02c16f2465836b52081b51d2112ec76102053bdea3382604051611404929190611bbd565b60405180910390a1505050565b3373ffffffffffffffffffffffffffffffffffffffff166002600084815260200190815260200160002060009054906101000a900473ffffffffffffffffffffffffffffffffffffffff1673ffffffffffffffffffffffffffffffffffffffff1614156115155780600083815481106114b3577f4e487b7100000000000000000000000000000000000000000000000000000000600052603260045260246000fd5b906000526020600020906004020160030160006101000a81548160ff0219169083151502179055507f2430f837dd2fb40e08c064be9db3d0cf2a7a21f8fe716a2a41787dafc66a7e2a828260405161150c929190611c45565b60405180910390a15b5050565b604051806080016040528060008152602001600073ffffffffffffffffffffffffffffffffffffffff168152602001606081526020016000151581525090565b60405180610120016040528060008152602001600073ffffffffffffffffffffffffffffffffffffffff168152602001606081526020016060815260200160608152602001606081526020016060815260200160608152602001606081525090565b8280546115c790611ddc565b90600052602060002090601f0160209004810192826115e95760008555611630565b82601f1061160257805160ff1916838001178555611630565b82800160010185558215611630579182015b8281111561162f578251825591602001919060010190611614565b5b50905061163d9190611641565b5090565b5b8082111561165a576000816000905550600101611642565b5090565b600061167161166c84611c93565b611c6e565b90508281526020810184848401111561168957600080fd5b611694848285611d9a565b509392505050565b6000813590506116ab81611f26565b92915050565b600082601f8301126116c257600080fd5b81356116d284826020860161165e565b91505092915050565b6000813590506116ea81611f3d565b92915050565b6000806040838503121561170357600080fd5b600083013567ffffffffffffffff81111561171d57600080fd5b611729858286016116b1565b925050602061173a8582860161169c565b9150509250929050565b600080600080600080600060e0888a03121561175f57600080fd5b600088013567ffffffffffffffff81111561177957600080fd5b6117858a828b016116b1565b975050602088013567ffffffffffffffff8111156117a257600080fd5b6117ae8a828b016116b1565b965050604088013567ffffffffffffffff8111156117cb57600080fd5b6117d78a828b016116b1565b955050606088013567ffffffffffffffff8111156117f457600080fd5b6118008a828b016116b1565b945050608088013567ffffffffffffffff81111561181d57600080fd5b6118298a828b016116b1565b93505060a088013567ffffffffffffffff81111561184657600080fd5b6118528a828b016116b1565b92505060c088013567ffffffffffffffff81111561186f57600080fd5b61187b8a828b016116b1565b91505092959891949750929550565b6000806040838503121561189d57600080fd5b60006118ab858286016116db565b92505060206118bc8582860161169c565b9150509250929050565b60006118d28383611a4d565b905092915050565b60006118e68383611b3c565b905092915050565b6118f781611d52565b82525050565b61190681611d52565b82525050565b600061191782611ce4565b6119218185611d1f565b93508360208202850161193385611cc4565b8060005b8581101561196f578484038952815161195085826118c6565b945061195b83611d05565b925060208a01995050600181019050611937565b50829750879550505050505092915050565b600061198c82611cef565b6119968185611d30565b9350836020820285016119a885611cd4565b8060005b858110156119e457848403895281516119c585826118da565b94506119d083611d12565b925060208a019950506001810190506119ac565b50829750879550505050505092915050565b6119ff81611d64565b82525050565b611a0e81611d64565b82525050565b6000611a1f82611cfa565b611a298185611d41565b9350611a39818560208601611da9565b611a4281611f15565b840191505092915050565b600061012083016000830151611a666000860182611b9f565b506020830151611a7960208601826118ee565b5060408301518482036040860152611a918282611a14565b91505060608301518482036060860152611aab8282611a14565b91505060808301518482036080860152611ac58282611a14565b91505060a083015184820360a0860152611adf8282611a14565b91505060c083015184820360c0860152611af98282611a14565b91505060e083015184820360e0860152611b138282611a14565b915050610100830151848203610100860152611b2f8282611a14565b9150508091505092915050565b6000608083016000830151611b546000860182611b9f565b506020830151611b6760208601826118ee565b5060408301518482036040860152611b7f8282611a14565b9150506060830151611b9460608601826119f6565b508091505092915050565b611ba881611d90565b82525050565b611bb781611d90565b82525050565b6000604082019050611bd260008301856118fd565b611bdf6020830184611bae565b9392505050565b60006020820190508181036000830152611c00818461190c565b905092915050565b60006020820190508181036000830152611c228184611981565b905092915050565b6000602082019050611c3f6000830184611bae565b92915050565b6000604082019050611c5a6000830185611bae565b611c676020830184611a05565b9392505050565b6000611c78611c89565b9050611c848282611e0e565b919050565b6000604051905090565b600067ffffffffffffffff821115611cae57611cad611ee6565b5b611cb782611f15565b9050602081019050919050565b6000819050602082019050919050565b6000819050602082019050919050565b600081519050919050565b600081519050919050565b600081519050919050565b6000602082019050919050565b6000602082019050919050565b600082825260208201905092915050565b600082825260208201905092915050565b600082825260208201905092915050565b6000611d5d82611d70565b9050919050565b60008115159050919050565b600073ffffffffffffffffffffffffffffffffffffffff82169050919050565b6000819050919050565b82818337600083830152505050565b60005b83811015611dc7578082015181840152602081019050611dac565b83811115611dd6576000848401525b50505050565b60006002820490506001821680611df457607f821691505b60208210811415611e0857611e07611eb7565b5b50919050565b611e1782611f15565b810181811067ffffffffffffffff82111715611e3657611e35611ee6565b5b80604052505050565b6000611e4a82611d90565b91507fffffffffffffffffffffffffffffffffffffffffffffffffffffffffffffffff821415611e7d57611e7c611e88565b5b600182019050919050565b7f4e487b7100000000000000000000000000000000000000000000000000000000600052601160045260246000fd5b7f4e487b7100000000000000000000000000000000000000000000000000000000600052602260045260246000fd5b7f4e487b7100000000000000000000000000000000000000000000000000000000600052604160045260246000fd5b6000601f19601f8301169050919050565b611f2f81611d64565b8114611f3a57600080fd5b50565b611f4681611d90565b8114611f5157600080fd5b5056fea26469706673582212201b68371a34b11ea19eb2c4e10cbcbcb5ca5feac01818e3cf191b4e4d798282a564736f6c63430008040033",
  "linkReferences": {},
  "deployedLinkReferences": {}
}